{
  "contractName": "Jenga",
  "abi": [
    {
      "constant": true,
      "inputs": [
        {
          "name": "",
          "type": "address"
        }
      ],
      "name": "balances",
      "outputs": [
        {
          "name": "",
          "type": "uint256"
        }
      ],
      "payable": false,
      "stateMutability": "view",
      "type": "function"
    },
    {
      "constant": true,
      "inputs": [
        {
          "name": "",
          "type": "bytes32"
        }
      ],
      "name": "Appmap",
      "outputs": [
        {
          "name": "applicant",
          "type": "address"
        },
        {
          "name": "ipfs",
          "type": "string"
        },
        {
          "name": "purpose",
          "type": "bytes32"
        },
        {
          "name": "name",
          "type": "bytes32"
        },
        {
          "name": "applied",
          "type": "bool"
        },
        {
          "name": "registry",
          "type": "bool"
        },
        {
          "name": "rejected",
          "type": "bool"
        },
        {
          "name": "sub",
          "type": "bool"
        },
        {
          "name": "paid",
          "type": "bool"
        },
        {
          "name": "circulate",
          "type": "bool"
        },
        {
          "name": "forward",
          "type": "bool"
        }
      ],
      "payable": false,
      "stateMutability": "view",
      "type": "function"
    },
    {
      "constant": true,
      "inputs": [
        {
          "name": "",
          "type": "uint256"
        }
      ],
      "name": "applicationArr",
      "outputs": [
        {
          "name": "",
          "type": "bytes32"
        }
      ],
      "payable": false,
      "stateMutability": "view",
      "type": "function"
    },
    {
      "inputs": [],
      "payable": false,
      "stateMutability": "nonpayable",
      "type": "constructor"
    },
    {
      "constant": false,
      "inputs": [
        {
          "name": "_ipfs",
          "type": "string"
        },
        {
          "name": "_purpose",
          "type": "bytes32"
        },
        {
          "name": "_name",
          "type": "bytes32"
        }
      ],
      "name": "applyapproval",
      "outputs": [],
      "payable": false,
      "stateMutability": "nonpayable",
      "type": "function"
    },
    {
      "constant": true,
      "inputs": [],
      "name": "applications",
      "outputs": [
        {
          "name": "add",
          "type": "address[]"
        },
        {
          "name": "purp",
          "type": "bytes32[]"
        },
        {
          "name": "name",
          "type": "bytes32[]"
        },
        {
          "name": "applied",
          "type": "bool[]"
        },
        {
          "name": "registry",
          "type": "bool[]"
        },
        {
          "name": "rejected",
          "type": "bool[]"
        },
        {
          "name": "sub",
          "type": "bool[]"
        }
      ],
      "payable": false,
      "stateMutability": "view",
      "type": "function"
    },
    {
      "constant": true,
      "inputs": [
        {
          "name": "_name",
          "type": "bytes32"
        }
      ],
      "name": "returnipfs",
      "outputs": [
        {
          "name": "ipfsfle",
          "type": "string"
        }
      ],
      "payable": false,
      "stateMutability": "view",
      "type": "function"
    },
    {
      "constant": false,
      "inputs": [
        {
          "name": "_name",
          "type": "bytes32"
        }
      ],
      "name": "regisAcc",
      "outputs": [],
      "payable": false,
      "stateMutability": "nonpayable",
      "type": "function"
    },
    {
      "constant": false,
      "inputs": [
        {
          "name": "_name",
          "type": "bytes32"
        }
      ],
      "name": "subAcc",
      "outputs": [],
      "payable": false,
      "stateMutability": "nonpayable",
      "type": "function"
    },
    {
      "constant": false,
      "inputs": [
        {
          "name": "_name",
          "type": "bytes32"
        }
      ],
      "name": "reject",
      "outputs": [],
      "payable": false,
      "stateMutability": "nonpayable",
      "type": "function"
    },
    {
      "constant": true,
      "inputs": [],
      "name": "applicationss",
      "outputs": [
        {
          "name": "paid",
          "type": "bool[]"
        },
        {
          "name": "circulate",
          "type": "bool[]"
        }
      ],
      "payable": false,
      "stateMutability": "view",
      "type": "function"
    },
    {
      "constant": false,
      "inputs": [
        {
          "name": "_to",
          "type": "address"
        },
        {
          "name": "_value",
          "type": "uint256"
        },
        {
          "name": "_name",
          "type": "bytes32"
        }
      ],
      "name": "Transfer",
      "outputs": [],
      "payable": false,
      "stateMutability": "nonpayable",
      "type": "function"
    },
    {
      "constant": true,
      "inputs": [
        {
          "name": "_user",
          "type": "address"
        }
      ],
      "name": "getbalance",
      "outputs": [
        {
          "name": "",
          "type": "uint256"
        }
      ],
      "payable": false,
      "stateMutability": "view",
      "type": "function"
    },
    {
      "constant": false,
      "inputs": [
        {
          "name": "_name",
          "type": "bytes32"
        }
      ],
      "name": "forwardd",
      "outputs": [],
      "payable": false,
      "stateMutability": "nonpayable",
      "type": "function"
    },
    {
      "constant": false,
      "inputs": [
        {
          "name": "_name",
          "type": "bytes32"
        }
      ],
      "name": "circulatee",
      "outputs": [],
      "payable": false,
      "stateMutability": "nonpayable",
      "type": "function"
    }
  ],
  "bytecode": "0x608060405234801561001057600080fd5b5061271060026000730cab5ed01bcbb9d45eaf36d9888fc55c2613d14c73ffffffffffffffffffffffffffffffffffffffff1673ffffffffffffffffffffffffffffffffffffffff168152602001908152602001600020819055506114a08061007a6000396000f3fe608060405234801561001057600080fd5b50600436106100ea5760003560e01c8063a87894951161008c578063ddb4684b11610066578063ddb4684b1461073b578063e50925ae146107e2578063ea633b3c14610824578063f93a63a314610852576100ea565b8063a878949514610687578063cabd734f146106df578063d032e4441461070d576100ea565b8063763a7175116100c8578063763a7175146101cd5780637ce5e82f146102745780639f347d5014610483578063a309cb0f146105b8576100ea565b806327e235e3146100ef5780635f3abc86146101475780636811617714610175575b600080fd5b6101316004803603602081101561010557600080fd5b81019080803573ffffffffffffffffffffffffffffffffffffffff169060200190929190505050610880565b6040518082815260200191505060405180910390f35b6101736004803603602081101561015d57600080fd5b8101908080359060200190929190505050610898565b005b6101b76004803603602081101561018b57600080fd5b81019080803573ffffffffffffffffffffffffffffffffffffffff1690602001909291905050506108d0565b6040518082815260200191505060405180910390f35b6101f9600480360360208110156101e357600080fd5b8101908080359060200190929190505050610919565b6040518080602001828103825283818151815260200191508051906020019080838360005b8381101561023957808201518184015260208101905061021e565b50505050905090810190601f1680156102665780820380516001836020036101000a031916815260200191505b509250505060405180910390f35b61027c6109d4565b604051808060200180602001806020018060200180602001806020018060200188810388528f818151815260200191508051906020019060200280838360005b838110156102d75780820151818401526020810190506102bc565b5050505090500188810387528e818151815260200191508051906020019060200280838360005b838110156103195780820151818401526020810190506102fe565b5050505090500188810386528d818151815260200191508051906020019060200280838360005b8381101561035b578082015181840152602081019050610340565b5050505090500188810385528c818151815260200191508051906020019060200280838360005b8381101561039d578082015181840152602081019050610382565b5050505090500188810384528b818151815260200191508051906020019060200280838360005b838110156103df5780820151818401526020810190506103c4565b5050505090500188810383528a818151815260200191508051906020019060200280838360005b83811015610421578082015181840152602081019050610406565b50505050905001888103825289818151815260200191508051906020019060200280838360005b83811015610463578082015181840152602081019050610448565b505050509050019e50505050505050505050505050505060405180910390f35b6104af6004803603602081101561049957600080fd5b8101908080359060200190929190505050610e1c565b604051808c73ffffffffffffffffffffffffffffffffffffffff1673ffffffffffffffffffffffffffffffffffffffff168152602001806020018b81526020018a81526020018915151515815260200188151515158152602001871515151581526020018615151515815260200185151515158152602001841515151581526020018315151515815260200182810382528c818151815260200191508051906020019080838360005b83811015610573578082015181840152602081019050610558565b50505050905090810190601f1680156105a05780820380516001836020036101000a031916815260200191505b509c5050505050505050505050505060405180910390f35b610685600480360360608110156105ce57600080fd5b81019080803590602001906401000000008111156105eb57600080fd5b8201836020820111156105fd57600080fd5b8035906020019184600183028401116401000000008311171561061f57600080fd5b91908080601f016020809104026020016040519081016040528093929190818152602001838380828437600081840152601f19601f8201169050808301925050505050505091929192908035906020019092919080359060200190929190505050610f89565b005b6106dd6004803603606081101561069d57600080fd5b81019080803573ffffffffffffffffffffffffffffffffffffffff1690602001909291908035906020019092919080359060200190929190505050611062565b005b61070b600480360360208110156106f557600080fd5b8101908080359060200190929190505050611182565b005b6107396004803603602081101561072357600080fd5b81019080803590602001909291905050506111ba565b005b6107436111f2565b604051808060200180602001838103835285818151815260200191508051906020019060200280838360005b8381101561078a57808201518184015260208101905061076f565b50505050905001838103825284818151815260200191508051906020019060200280838360005b838110156107cc5780820151818401526020810190506107b1565b5050505090500194505050505060405180910390f35b61080e600480360360208110156107f857600080fd5b810190808035906020019092919050505061133e565b6040518082815260200191505060405180910390f35b6108506004803603602081101561083a57600080fd5b810190808035906020019092919050505061135f565b005b61087e6004803603602081101561086857600080fd5b8101908080359060200190929190505050611397565b005b60026020528060005260406000206000915090505481565b600060016000838152602001908152602001600020905060018160040160066101000a81548160ff0219169083151502179055505050565b6000600260008373ffffffffffffffffffffffffffffffffffffffff1673ffffffffffffffffffffffffffffffffffffffff168152602001908152602001600020549050919050565b6060600160008381526020019081526020016000206001018054600181600116156101000203166002900480601f0160208091040260200160405190810160405280929190818152602001828054600181600116156101000203166002900480156109c55780601f1061099a576101008083540402835291602001916109c5565b820191906000526020600020905b8154815290600101906020018083116109a857829003601f168201915b50505050509050809050919050565b6060806060806060806060600080549050604051908082528060200260200182016040528015610a135781602001602082028038833980820191505090505b509450600080549050604051908082528060200260200182016040528015610a4a5781602001602082028038833980820191505090505b509550600080549050604051908082528060200260200182016040528015610a815781602001602082028038833980820191505090505b509650600080549050604051908082528060200260200182016040528015610ab85781602001602082028038833980820191505090505b509350600080549050604051908082528060200260200182016040528015610aef5781602001602082028038833980820191505090505b509250600080549050604051908082528060200260200182016040528015610b265781602001602082028038833980820191505090505b509150600080549050604051908082528060200260200182016040528015610b5d5781602001602082028038833980820191505090505b50905060008090505b600080549050811015610dfd5760016000808381548110610b8357fe5b9060005260206000200154815260200190815260200160002060000160009054906101000a900473ffffffffffffffffffffffffffffffffffffffff16888281518110610bcc57fe5b602002602001019073ffffffffffffffffffffffffffffffffffffffff16908173ffffffffffffffffffffffffffffffffffffffff168152505060016000808381548110610c1657fe5b9060005260206000200154815260200190815260200160002060020154878281518110610c3f57fe5b60200260200101818152505060016000808381548110610c5b57fe5b9060005260206000200154815260200190815260200160002060030154868281518110610c8457fe5b60200260200101818152505060016000808381548110610ca057fe5b9060005260206000200154815260200190815260200160002060040160009054906101000a900460ff16858281518110610cd657fe5b60200260200101901515908115158152505060016000808381548110610cf857fe5b9060005260206000200154815260200190815260200160002060040160019054906101000a900460ff16848281518110610d2e57fe5b60200260200101901515908115158152505060016000808381548110610d5057fe5b9060005260206000200154815260200190815260200160002060040160029054906101000a900460ff16838281518110610d8657fe5b60200260200101901515908115158152505060016000808381548110610da857fe5b9060005260206000200154815260200190815260200160002060040160039054906101000a900460ff16828281518110610dde57fe5b6020026020010190151590811515815250508080600101915050610b66565b5086868686868587965096509650965096509650965090919293949596565b60016020528060005260406000206000915090508060000160009054906101000a900473ffffffffffffffffffffffffffffffffffffffff1690806001018054600181600116156101000203166002900480601f016020809104026020016040519081016040528092919081815260200182805460018160011615610100020316600290048015610eee5780601f10610ec357610100808354040283529160200191610eee565b820191906000526020600020905b815481529060010190602001808311610ed157829003601f168201915b5050505050908060020154908060030154908060040160009054906101000a900460ff16908060040160019054906101000a900460ff16908060040160029054906101000a900460ff16908060040160039054906101000a900460ff16908060040160049054906101000a900460ff16908060040160059054906101000a900460ff16908060040160069054906101000a900460ff1690508b565b60006001600083815260200190815260200160002090506000809050338260000160006101000a81548173ffffffffffffffffffffffffffffffffffffffff021916908373ffffffffffffffffffffffffffffffffffffffff160217905550848260010190805190602001906110009291906113cf565b5083826002018190555082826003018190555060018260040160006101000a81548160ff021916908315150217905550808390806001815401808255809150509060018203906000526020600020016000909192909190915055505050505050565b600060016000838152602001908152602001600020905060018160040160046101000a81548160ff02191690831515021790555082600260003373ffffffffffffffffffffffffffffffffffffffff1673ffffffffffffffffffffffffffffffffffffffff1681526020019081526020016000205410156110e257600080fd5b82600260003373ffffffffffffffffffffffffffffffffffffffff1673ffffffffffffffffffffffffffffffffffffffff1681526020019081526020016000206000828254039250508190555082600260008673ffffffffffffffffffffffffffffffffffffffff1673ffffffffffffffffffffffffffffffffffffffff1681526020019081526020016000206000828254019250508190555050505050565b600060016000838152602001908152602001600020905060018160040160026101000a81548160ff0219169083151502179055505050565b600060016000838152602001908152602001600020905060018160040160056101000a81548160ff0219169083151502179055505050565b6060806000805490506040519080825280602002602001820160405280156112295781602001602082028038833980820191505090505b5091506000805490506040519080825280602002602001820160405280156112605781602001602082028038833980820191505090505b50905060008090505b600080549050811015611333576001600080838154811061128657fe5b9060005260206000200154815260200190815260200160002060040160049054906101000a900460ff168382815181106112bc57fe5b602002602001019015159081151581525050600160008083815481106112de57fe5b9060005260206000200154815260200190815260200160002060040160049054906101000a900460ff1682828151811061131457fe5b6020026020010190151590811515815250508080600101915050611269565b508181915091509091565b6000818154811061134b57fe5b906000526020600020016000915090505481565b600060016000838152602001908152602001600020905060018160040160016101000a81548160ff0219169083151502179055505050565b600060016000838152602001908152602001600020905060018160040160036101000a81548160ff0219169083151502179055505050565b828054600181600116156101000203166002900490600052602060002090601f016020900481019282601f1061141057805160ff191683800117855561143e565b8280016001018555821561143e579182015b8281111561143d578251825591602001919060010190611422565b5b50905061144b919061144f565b5090565b61147191905b8082111561146d576000816000905550600101611455565b5090565b9056fea165627a7a72305820ff38ab8c6d7ee9c74dc3269b4eb8f32a978bc3e2c0040d390487d42d03713f970029",
  "source": "pragma solidity 0.5.8;\n\ncontract Jenga {\n    \n    struct Application {\n        address applicant;\n        string ipfs;\n        bytes32 purpose;\n        bytes32 name;\n        bool applied;\n        bool registry;\n        bool rejected;\n        bool sub;\n        bool paid;\n        bool circulate;\n        bool forward;\n        \n    }\n   \n    bytes32[] public  applicationArr;\n    mapping (bytes32=>Application)public Appmap;\n    mapping (address => uint256) public balances;\n     constructor () public {\n         balances[0x0cAB5ed01BcBb9d45eaf36d9888fc55C2613D14c]= 10000;\n     }\n    function applyapproval\n    ( \n        string memory _ipfs,\n        bytes32 _purpose,\n        bytes32 _name\n    ) public\n    {\n      Application storage app = Appmap[_name];\n      bytes32[] storage arr = applicationArr;\n      app.applicant = msg.sender;\n      app.ipfs = _ipfs;\n      app.purpose = _purpose;\n      app.name = _name;\n      app.applied = true;\n      arr.push(_name);\n\n    }\n\n    function applications()public view returns (\n     address[] memory add,\n     bytes32[] memory purp,\n     bytes32[] memory name ,\n     bool[] memory applied,\n     bool[] memory registry,\n     bool[] memory rejected,\n     bool[] memory sub\n     \n    \n    ){\n        name = new bytes32[](applicationArr.length);\n        purp = new bytes32[](applicationArr.length);\n        add = new address[](applicationArr.length);\n        applied = new bool[](applicationArr.length);\n        registry = new bool[](applicationArr.length);\n        rejected = new bool[](applicationArr.length);\n        sub = new bool[](applicationArr.length);\n       \n     for (uint i = 0; i < applicationArr.length; i++) {        \n        add[i] = Appmap[applicationArr[i]].applicant;\n        purp[i] = Appmap[applicationArr[i]].purpose;\n        name[i] = Appmap[applicationArr[i]].name;\n        applied[i] = Appmap[applicationArr[i]].applied;\n        registry[i] = Appmap[applicationArr[i]].registry;\n        rejected[i] = Appmap[applicationArr[i]].rejected;\n        sub[i] = Appmap[applicationArr[i]].sub;\n        \n     }\n     return(add,purp,name,applied,registry,sub,rejected);\n    }\n    function returnipfs(bytes32 _name)public view returns(string memory ipfsfle) {\n        ipfsfle = Appmap[_name].ipfs;\n        return(ipfsfle);\n        \n    }\n    function regisAcc(bytes32 _name)public {\n        Application storage app = Appmap[_name];\n        app.registry = true;\n    }\n    function subAcc(bytes32 _name)public {\n        Application storage app = Appmap[_name];\n        app.sub = true;\n    }\n    function reject(bytes32 _name)public {\n        Application storage app = Appmap[_name];\n        app.rejected = true;\n    }\n    function applicationss()public view returns(\n        bool[] memory paid,\n        bool[] memory circulate\n    ) {\n        paid = new bool[](applicationArr.length);\n        circulate = new bool[](applicationArr.length);\n        for (uint i = 0; i < applicationArr.length; i++) { \n            paid[i] = Appmap[applicationArr[i]].paid;\n            circulate[i] = Appmap[applicationArr[i]].paid;\n        }\n        return(paid,circulate);\n        \n    }\n    function Transfer\n    (\n       address _to, \n       uint256 _value,\n       bytes32 _name\n    ) \n    public\n    {  Application storage app = Appmap[_name];\n        app.paid = true;\n        require(balances[msg.sender]>= _value);\n        balances[msg.sender] -= _value;\n        balances[_to] += _value;\n        \n    }\n    function getbalance(address _user)public view returns(uint256){\n        return balances[_user];\n    }\n    function forwardd(bytes32 _name)public {\n        Application storage app = Appmap[_name];\n        app.forward = true;\n    }\n    function circulatee(bytes32 _name)public {\n        Application storage app = Appmap[_name];\n        app.circulate = true;\n    }\n}",
  "sourcePath": "/home/collins/Desktop/jenga/contracts/Jenga.sol",
  "compiler": {
    "name": "solc",
    "version": "0.5.8+commit.23d335f2.Emscripten.clang"
  },
  "schemaVersion": "3.0.11",
  "updatedAt": "2019-09-04T16:29:43.765Z",
  "devdoc": {
    "methods": {}
  },
  "userdoc": {
    "methods": {}
  }
}